:020000040000fa
:080000000001040000000000f3
:020000040000fa
:0400080020030000d1
:020000040000fa
:04000c0020030000cd
:020000040000fa
:0400100020030000c9
:020000040000fa
:0400140020030000c5
:020000040000fa
:0400180020030000c1
:020000040000fa
:04001c0020030000bd
:020000040000fa
:0400200020030000b9
:020000040000fa
:0400240020030000b5
:020000040000fa
:0400280018030000b9
:020000040000fa
:04002c0020030000ad
:020000040000fa
:0400300020030000a9
:020000040000fa
:04003400ec020000da
:020000040000fa
:0400380020030000a1
:020000040000fa
:04003c00200300009d
:020000040000fa
:040040002003000099
:020000040000fa
:040044002003000095
:020000040000fa
:040048002003000091
:020000040000fa
:04004c00200300008d
:020000040000fa
:040050002003000089
:020000040000fa
:040054002003000085
:020000040000fa
:040058002003000081
:020000040000fa
:04005c00da020000c4
:020000040000fa
:040060002003000079
:020000040000fa
:040064002003000075
:020000040000fa
:040068002003000071
:020000040000fa
:04006c00200300006d
:020000040000fa
:040070002003000069
:020000040000fa
:040074002003000065
:020000040000fa
:040078002003000061
:020000040000fa
:04007c00200300005d
:020000040000fa
:040080002003000059
:020000040000fa
:040084002003000055
:020000040000fa
:040088002003000051
:020000040000fa
:04008c00200300004d
:020000040000fa
:040090002003000049
:020000040000fa
:040094002003000045
:020000040000fa
:040098002003000041
:020000040000fa
:04009c00200300003d
:020000040000fa
:0400a00072020000e8
:020000040000fa
:0400a4002a0200002c
:020000040000fa
:0400a8002003000031
:020000040000fa
:0400ac00200300002d
:020000040000fa
:0400b0002003000029
:020000040000fa
:0400b4002003000025
:020000040000fa
:0400b8002003000021
:020000040000fa
:0400bc00200300001d
:020000040000fa
:0400c0002003000019
:020000040000fa
:0400c4002003000015
:020000040000fa
:0400c8002003000011
:020000040000fa
:0400cc00200300000d
:020000040000fa
:0400d0002003000009
:020000040000fa
:0400d4002003000005
:020000040000fa
:0400d8002003000001
:020000040000fa
:0400dc0020030000fd
:020000040000fa
:0400e00020030000f9
:020000040000fa
:0400e40020030000f5
:020000040000fa
:0400e80020030000f1
:020000040000fa
:0400ec0020030000ed
:020000040000fa
:0400f00020030000e9
:020000040000fa
:0400f40020030000e5
:020000040000fa
:0400f80020030000e1
:020000040000fa
:0400fc0020030000dd
:020000040000fa
:0401000020030000d8
:020000040000fa
:0401040020030000d4
:020000040000fa
:0401080020030000d0
:020000040000fa
:04010c0020030000cc
:020000040000fa
:0401100020030000c8
:020000040000fa
:0401140020030000c4
:020000040000fa
:0401180020030000c0
:020000040000fa
:04011c0020030000bc
:020000040000fa
:0401200004020000d5
:020000040000fa
:0401240020030000b4
:020000040000fa
:0401280020030000b0
:020000040000fa
:04012c0020030000ac
:020000040000fa
:04013000c402000005
:020000040000fa
:0401340020030000a4
:020000040000fa
:0401380020030000a0
:020000040000fa
:04013c00200300009c
:020000040000fa
:040140002003000098
:020000040000fa
:040144002003000094
:020000040000fa
:040148002003000090
:020000040000fa
:04014c00200300008c
:020000040000fa
:040150002003000088
:020000040000fa
:040154002003000084
:020000040000fa
:040158002003000080
:020000040000fa
:04015c00200300007c
:020000040000fa
:040160002003000078
:020000040000fa
:040164002003000074
:020000040000fa
:040168002003000070
:020000040000fa
:04016c00200300006c
:020000040000fa
:040170002003000068
:020000040000fa
:040174002003000064
:020000040000fa
:040178002003000060
:020000040000fa
:04017c00200300005c
:020000040000fa
:040180002003000058
:020000040000fa
:040184002003000054
:020000040000fa
:040188002003000050
:020000040000fa
:04018c00200300004c
:020000040000fa
:040190002003000048
:020000040000fa
:040194002003000044
:020000040000fa
:040198002003000040
:020000040000fa
:04019c00200300003c
:020000040000fa
:0401a0002003000038
:020000040000fa
:0401a4002003000034
:020000040000fa
:0401a8002003000030
:020000040000fa
:0401ac00200300002c
:020000040000fa
:0401b0002003000028
:020000040000fa
:0401b4002003000024
:020000040000fa
:0401b8002003000020
:020000040000fa
:0401bc00200300001c
:020000040000fa
:0401c0002003000018
:020000040000fa
:0401c4002003000014
:020000040000fa
:0401c8002003000010
:020000040000fa
:0401cc00200300000c
:020000040000fa
:0401d0002003000008
:020000040000fa
:0401d4002003000004
:020000040000fa
:0401d8002003000000
:020000040000fa
:0401dc0020030000fc
:020000040000fa
:0401e00020030000f8
:020000040000fa
:0401e40020030000f4
:020000040000fa
:0401e80020030000f0
:020000040000fa
:0401ec0020030000ec
:020000040000fa
:0401f00020030000e8
:020000040000fa
:0401f40020030000e4
:020000040000fa
:0401f80020030000e0
:020000040000fa
:0401fc0020030000dc
:020000040000fa
:10020000efa823000e7f24000e01880000000000ec
:10021000000020000000e000020032000001200089
:100220002002880014000700230107000000e000fe
:1002300003003a00e001290001002000020037001d
:100240000000200001002000810f7000010032003a
:1002500014000700000020000000e000020032004f
:10026000000002000000000000800200000000000a
:100270000040da000000fe004440a900a000200079
:100280000000e00003003200002020009001880000
:100290004440a800000006008a1f78008b1f7800e9
:1002a00000000600a1028800800478000000eb0036
:1002b0001f003700e284440054a0b4009905ba003e
:1002c000e284440054a0b4009906ba00e2844400d9
:1002d00054a0b4000006eb00476fde00fd07b2003b
:1002e000ae018800636ce10003003a00eaff0700fa
:1002f0000000eb000e003700606ce10008003a00df
:10030000004deb000a05e800020039003420ec0043
:100310000af0a0008b05e900f9ff3e000400370059
:100320006168e100010032000086eb000b0007006d
:1003300019c7ba001905ba000e04e00003003a001c
:100340000a00e000dbff3a0000000600fe07b200f2
:10035000ae0288008a047800f5ff37000cd0a300b5
:10036000e20f4d001c00390089027800354dba00bb
:100370000a05e800020039003420ec000af0a00071
:100380008b05e9000f003200254dba000a05e80090
:10039000020039003420ec000af0a0008b05e900cf
:1003a000080032000c00e0000600320015cdba0053
:1003b0000a05e800020039003420ec000af0a00031
:1003c0008b05e9008984e80054a0b4000b00e0002c
:1003d000e2ff3a00000006009902ba00055d7800cd
:1003e0008b05e900f7ff3200c82ade00055d7800c2
:1003f0008b05e900f3ff32000c00e000f1ff320052
:1004000019ddba00eeff37003600f800809fbe000d
:10041000829fbe00849fbe00869fbe000000fa003f
:100420008fc0a900f04280000000e000020032000e
:10043000f0428000000001000080fa004f03be007f
:100440004f02be004f01be004f00be003600f90053
:1004500000400600809fbe000000fa00c1418000fd
:10046000b0418000808f500002003a009be0a9005c
:10047000190037008be0a90010003700c041800050
:10048000904078008180fb00911d88000000e8000a
:10049000c0418800c1418000908f2300808f5000b0
:1004a00002003a00008f2300c0418800c141800053
:1004b000b0418000808f500006003200811d800016
:1004c00000202000008060000000e000ebff320010
:1004d00001003700000000000080fa004f00be005d
:1004e00000400600809fbe000000fa008bc0a900fb
:1004f0001e00370090418000a11d800081407800df
:10050000014878009141800090972300808f50002f
:1005100009003200904180008000e800a041800086
:10052000808f500004003200904180000000e800fd
:10053000904188000d003700914180009097230082
:10054000808f500007003a00a1418000908f230067
:10055000808f500003003200908f2300904188006c
:100560000200370010c0b3003ae8b700801d8000d9
:10057000610060000000e000deff3a000080fa0049
:100580004f00be0000400600801f78000000fa0007
:10059000801d8000620060000000e0000100320069
:1005a000b023a9009040a9000080fa004f00780015
:1005b00000400600801f78000000fa0089a0a90012
:1005c00000c8bf000040e80000e8b7000080fa0063
:1005d0004f007800004006003600f800809fbe0003
:1005e000829fbe00849fbe00869fbe000000fa006e
:1005f0008860a900804280000000e0000300320013
:1006000080428000000001000200370010c0b300eb
:100610004ee8b7000080fa004f03be004f02be0054
:100620004f01be004f00be003600f900004006003a
:100630000000fa008800a9000080fa0000400600cf
:100640000040da000000fe000a00fa0020079800cf
:100650003107980042079800be00900011079800eb
:100660000000eb00000f78000c00370000000000d5
:10067000881d07000004a2000004e000fcff3a000f
:100680001e009000104078009e0090008100e8005d
:10069000110798005f1d07001e0fe8004e00900034
:1006a0009e007800808f5000f0ff39004e009000cf
:1006b0000080fa00000006000000050003f0a20020
:1006c000889fbe008a9fbe008c1f7800fe00070036
:1006d000050133006450e1004f0032006420e10066
:1006e0005200320003826c0007003b000905d00075
:1006f0000306d000820f54000c065d000200390092
:1007000002003200890178000306780085825500d6
:1007100004003d000003fd008103fd008502ea00a6
:100720008b854200840f720002003b0060001000c5
:10073000e08018006011b8000005eb007a28e100a5
:100740000a00390006007800c75ddd00f707b20037
:10075000878075002d003700828171000a017800c2
:10076000610560008180d1000080d3008502e9002e
:10077000f9ff3b00060440008784480002003b006c
:1007800060041400e0841c000988a3000700320004
:100790008a81710082817100610164008904d10045
:1007a0000884d3008b05e800170037000978a30000
:1007b00013003a000b00e000130034008b05e90041
:1007c0000804440089844c000a4474000978a3009a
:1007d0000d003a000b00e000070034008b05e90033
:1007e0000804440089844c0001003a000b002000fa
:1007f0000978a300f7ff32000001eb000200370088
:10080000828171000a017800740007000cf0a700d3
:1008100001f0a000bd0037006420e10002003a00b2
:10082000838f6c00bd0033000801be000200be00d3
:10083000b6003700889fbe008a9fbe008c1f7800dc
:10084000a1000700a800330003866c006450e1009b
:100850002e0032006420e100330032006150e100dc
:100860002f0032006120e100310032008585550003
:10087000eb07b00009002000080420000500370045
:100880000804440089844c000a0031000603430038
:1008900087834b000001530081815b00f8ff330028
:1008a0000203be000800a0000804440089844c0034
:1008b000f6ff3900c639dd00830173000100320004
:1008c000130020008904d1000884d3000998a300f4
:1008d000050032000800a7000300a0008904d10031
:1008e0000884d3008b05e8008904d1000884d30074
:1008f0000001eb000281d2003800070001f0a100e6
:100900000cf0a70001f0a000800037006420e10097
:10091000820032000801be000200be00f7ff37006f
:100920006120e1007d0032006000b800f3ff370075
:100930000000200001f82700f0ff3700140020001d
:10094000bf0037000001be004a0007000470a70086
:1009500003f0a1006509b100160032000d0035005a
:100960006828e10006003500f0ff2f00f1ff2700a6
:100970000300e00013003b00010028000000050018
:1009800000004000818048008502e900fcff3a0039
:1009900008003700f88f420002003c008000eb00a6
:1009a000000005008100d1000080d3008502e8002e
:1009b000fcff3a000300e00002003b006000100072
:1009c000e0801800000006004f89de0082017800f8
:1009d000b60037006011b800c40037008100200065
:1009e000618055000b003d000b00200061fe2f00d0
:1009f0000100e1001d00340082817100610164008a
:100a00008904d1000884d3000000e800faff3a000e
:100a100071002000610064000300700002006000ab
:100a20000900320061044400e0844c000988a500fc
:100a3000050032008b05e8006808e10002003a007a
:100a40008904d1000884d300f20f20000258e1008d
:100a500005003d00c75ddd00f907b2008980750023
:100a600008007800000006000bf827008b007800d3
:100a700000000500c70ade00f107b200f50fb20062
:100a800008003200e1cf4200020032000170a000f5
:100a900024000500810f70000100320004080500e9
:100aa00044000500810f700002003a0014000500a8
:100ab0008502e9000000400081c04800fcff3b00c7
:100ac0000170a000240005000004be00e9ff07003b
:100ad0000003be000405be000200be00e5ff0700e3
:100ae000844f7500000006000200be006450e10063
:100af000050036006420e100020036000968a3000a
:100b000001003a000800be000160a0004f06780016
:100b10004f05be004f04be0000000600f0ff2f008e
:100b2000f1ff2700f9ff3700889fbe008a9fbe00b3
:100b30008c1f7800e4ff0700ebff330003866c0096
:100b40006450e100240032006420e10027003200fc
:100b50006150e100220032006120e10021003200fa
:100b60008b854200eb07b1000134b800003ab800b1
:100b70000804420089844a00013ab8000030b800f5
:100b80008880400009014a00040033000000400052
:100b900081804800020149008b05e900c909dd0098
:100ba000830170000100320013002000c814de0031
:100bb0004814dd004709de001200b200c808de005c
:100bc0000884700085ff070001f0a1000cf0a70069
:100bd00001f0a000cdff37006120e100cfff32001f
:100be0000801be000200be00f7ff37006150e100bf
:100bf000fcff3a00c9ff37000001eb006a00370034
:100c00006022b800060220000000d0008180d200df
:100c10000482d2008582d2000000a00002025200ad
:100c200083825a00030031000202420083824a009c
:100c30000000a1000603e900f3ff3a0000000600ef
:100c4000889fbe008a9fbe00841f78009eff070019
:100c50004f00780011003300f0ff2f00838f6c00ed
:100c600006003b00040565000a00a70008003700e5
:100c700009f0a6001000200008003700820f540081
:100c8000838f5c00030039001000200001003e004b
:100c90000000200009f0a7000000ea004f05be0098
:100ca0004f04be000000e00000000600881f78002e
:100cb000030478000300e00007003d00600010001e
:100cc000e080180060011900e081190002003b007b
:100cd00001f02d00030037000400070008f0a70012
:100ce00001f0a0004f04780000000600889fbe00bd
:100cf0008a9fbe00008270000402710004827100ad
:100d0000260032000004be000200be006011b800e0
:100d10006b092000950220000182cf000a003900f3
:100d20000541b1000082cf00070039000541b10044
:100d30000982cf00040039000541b1000882cf00cc
:100d4000010039000541b100054252001200320095
:100d50000a003b0082817100610164008100d100c2
:100d60000080d3008984d3000884d3008b05e80079
:100d70000442e800f7ff3a00070037000804440087
:100d800089844c0000004800818048008b05e90000
:100d90000442e900f9ff3a0010ff07004f05be00ca
:100da0004f04be0000000600889fbe008a9fbe0060
:100db0008c9fbe00820578000004be002dff070056
:100dc0000800be006420e1000700390002003a007c
:100dd000f1ff2700f0ff2f000160a00012022000a9
:100de00022438800550037006120e10003003a00eb
:100df0000b00a70001f823005000370001f0a1000c
:100e00000200210093642400ccfe07000800be000d
:100e100004003500b2fd2000930c24004b000700b5
:100e20000004be000005eb000b00a6004f0dde0025
:100e300001f0a1000004be0032982f0023ea230035
:100e400039ff07000001eb0003f023000b00a700af
:100e500003f823001afe0700bafe07000000a700ef
:100e60000a00a200d8fe07000b00e00003003200d9
:100e70000200200003f0230010fe070001f0a20092
:100e80000006be00020020009304240026ff070095
:100e90000801be000afe0700809fbe000c00be00d5
:100ea00022a22a00d3a723001fff07004f01be0084
:100eb00003fe07000004be0001f0a10002002000b4
:100ec000039823009dfe07000800be0019003500ae
:100ed0000001be0014ff07000006be00b2c52900d5
:100ee000e362230010ff070022222b00f3942b0063
:100ef000f3fd07000c01be000bff0700e2732800a2
:100f000083c02300eefd07000c01be0006ff0700b2
:100f100042aa2a00a3e22b00e9fd07000c01be0053
:100f200001ff07000801be00fffe07000801be0028
:100f3000e3fd07000a00a70001f0a2004f06be0073
:100f40004f05be004f04be00000006000400200054
:100f500000003700889fbe008a9fbe008c1f78006b
:100f60004f26dd00d8fe0700dffe33006120e100e0
:100f7000430032006250e10041003e003e00390073
:100f80006420e1003c003200058255000f003b0068
:100f90000402e80038003a00800f5300818f5b00a4
:100fa000350034000800be0003f0a10001f0a600e7
:100fb00003f0a0000cf0a700c1fd0700d3fe37002e
:100fc0000603430087834b000c4646000005530090
:100fd00081855b00020033000a03be000c00a00004
:100fe0000402e900f6ff3b00850578000602430095
:100ff00087824b0004003a006000b80009f0a700a7
:1010000001f0a000c1fe37000002520081825a00a8
:101010000704e000040033000603430087834b000d
:101020008b05e900faff3700090578000604be00c9
:101030000203be006011b80068fe0700e00f520016
:10104000e08f5a000700350002003c000c08a300a6
:10105000040032000601be0003f0a0000cf0a7005f
:1010600097fd07000a85680001f0a1000af0a700bb
:1010700001f0a000a5fe37000800be00a3fe370067
:10108000100220000cf0a60020438800a3fe3700c9
:101090008001780002003700b15978000201e900b0
:1010a0000200e000fcff3a0000000600800178002a
:1010b00002003700815978000201e9000200e000d7
:0810c000fcff3a0000000600ed
:020000040000fa
:1010c8006f120000833a0000db0f0000c9400000e7
:0410d8000300000011
:020000040000fa
:1010dc001600fa005a68ef000040eb0060479800d9
:1010ec00ab0037000040eb00004f78000000eb0035
:1010fc00100798000000eb00400798000000eb0080
:10110c0020079800030037002e0090000000e80034
:10111c00200798002e009000e10f500008003e00c0
:10112c002e0090000040780042c1b300804078004f
:10113c006e409000cf0307000004e000f2ff320085
:10114c002e009000e20f500003003a005a28a8002d
:10115c0010002000920037000000eb0020079800e0
:10116c000c0037002e0090000040780032c1b30014
:10117c00804078006e409000be0307000004e00041
:10118c0001003a001e4fe8002e0090000000e8001d
:10119c00200798002e009000e10f5000f1ff360060
:1011ac001e4078000004e00034003a008040eb0060
:1011bc006e409000fb030700020024000310200087
:1011cc006e4090000080fb004c00dd00cf80de0004
:1011dc000201400083814800f0ff2f00f10f200036
:1011ec000202780003017800800178000100780089
:1011fc0003026200000061008000eb00c000dd0013
:10120c00000020000001be006120b8000001710048
:10121c00818171005207980063079800300f2000fd
:10122c000100200070079800010f98007e009000cc
:10123c008e089000c000dd000000200070079800b0
:10124c00010f9800f0ff2f00f10f2000100f9800f5
:10125c00210f980050052000a10a200074410700be
:10126c006e004700000178005e009000ee009000d8
:10127c00e542070073410700420037001e4078002a
:10128c00e14f50003c0032001e407800e24f50000d
:10129c0036003a0032c1b30011c0b3006e4090006a
:1012ac00740307000004e0000b003a0032c1b300e5
:1012bc008040eb006e4090006e0307000004e000dd
:1012cc0005003a0010002000200798000000eb00f9
:1012dc0010079800190037000000eb002007980059
:1012ec00030037002e0090000000e8002007980053
:1012fc002e0090000040780032c1b300804078008e
:10130c006e4090005b030700e14f500003003a0071
:10131c002e009000e10f5000f2ff36002e009000de
:10132c000000e800100798001e009000e20f50002b
:10133c0002003a000000eb00100798001e0090001d
:10134c0000407800804078006e40900095030700c4
:10135c006e409000bc0307000000e00008003a005b
:10136c006e40900088010700060037005ac8a8009c
:10137c00600020000a003700000000000100370068
:10138c00000000006e4090000040e80060479800ac
:10139c006e409000e34f500052ff36000000eb000f
:1013ac000080fa00000006001200fa007007980096
:1013bc00010f9800fe009000f01f2000808f50005d
:1013cc00030036005aa8a800500020006d0037001a
:1013dc007e0090004700de00004f98000000eb00fc
:1013ec00000f7800010037001e0fe8001e00780087
:1013fc00e10f500008003e001e007800004078000d
:10140c0032c1b300804078000e48900019030700e9
:10141c00e14f5000f4ff32001e007800e20f500044
:10142c0003003a005ac8a80060002000550037009d
:10143c0002002400031020000e4890000080fb00e6
:10144c004c00dd00cf80de000201400083814800ab
:10145c001e00e8004b00dd008000eb0002014000a4
:10146c0083814800f0ff2f00f10f2000020278006a
:10147c00030178008001780001007800030262000b
:10148c00000061008000eb00c000dd0000002000c7
:10149c000001be006120b800000171008181710063
:1014ac0064005100e0805900100798002107980053
:1014bc0000402000300798006a00470000017800c7
:1014cc001e009000ae0090006e4207005e0090007f
:1014dc00ee0090004008de00104f98001e009000b7
:1014ec00ae00900064005000e08058001007980097
:1014fc00210798003e0090000080e900300798001a
:10150c003e0090000000e000070032001e489000f2
:10151c008080fb007e019000f0072000000061003d
:10152c00808f5000e4ff3a003e0090000000e00085
:10153c0003003a005a08a8005000200011003700a0
:10154c001e009000ae00900064004000e080480057
:10155c0010079800210798006a00470000017800e6
:10156c001e009000ae009000464207005e00900006
:10157c00ee009000800078000e08900001087800c2
:10158c000000eb000080fa00000006002000fa00ca
:10159c00600f9800710f9800ee089000f01f20006b
:1015ac00808f5000030036005aa8a800500020007d
:1015bc00f30037006e0890004700de0050079800db
:1015cc000000eb00000f7800010037001e0fe80050
:1015dc001e007800e10f500008003e001e0078004d
:1015ec00804078005e0090000040780032c1b3006b
:1015fc00a0020700e14f5000f4ff32001e007800fb
:10160c00e20f500003003a005ac8a8006000200006
:10161c00db00370002002400031020005e00900065
:10162c004c00dd008000eb0002014000838148008b
:10163c001e0078004b00dd008000eb000201400032
:10164c0083814800f0ff2f00f10f20000202780088
:10165c000301780080017800010078000302620029
:10166c00000061008000eb00c000dd0000002000e5
:10167c000001be006120b800000171008181710081
:10168c0012079800230798005e0090000040780035
:10169c00ed020700300798003e0090000000e000cb
:1016ac0045003a001e00e800400798004e009000ec
:1016bc00e20f500002003a000000eb0040079800d7
:1016cc004e009000804078005e0090000040780052
:1016dc00b40207005e00900000407800aa000700ea
:1016ec000000eb00000f7800010037001e0fe8002f
:1016fc001e007800e10f500008003e001e0078002c
:10170c00804078005e0090000040780032c1b30049
:10171c0058020700e14f5000f4ff32001e00780021
:10172c00e20f500003003a005ac8a80060002000e5
:10173c009300370002002400031020005e0090008c
:10174c004c00dd008000eb0002014000838148006a
:10175c001e0078004b00dd008000eb000201400011
:10176c0083814800f0ff2f00f10f20000202780067
:10177c000301780080017800010078000302620008
:10178c00000061008000eb00c000dd0000002000c4
:10179c000001be006120b800000171008181710060
:1017ac0012079800230798005e0090000040780014
:1017bc00a502070030079800a18520009140780011
:1017cc00414f98007a004700800078006e08900026
:1017dc00f5fe0700de0890007e089000808f500018
:1017ec0009003a00d0428000610060000000e00077
:1017fc0005003a00ce489000a285200001497800ef
:10180c000000eb005e003700ce489000a28520005f
:10181c00014978003e0090008000eb001e01900012
:10182c00ae01900002004000838048001007980031
:10183c00210798006e0890006101b800f0072000a5
:10184c00010020000202780003017800800178007a
:10185c000100780003026200000061008000eb00d0
:10186c00c000dd00000020000001be006120b800b7
:10187c000001710081817100120f9800230f9800f4
:10188c001e089000ae089000c001dd000200200090
:10189c007e0890008000eb000000710081807100d8
:1018ac00100f9800210f9800f0ff2f00f10f20006f
:1018bc00300f9800410f980050052000a10a20001d
:1018cc00db3f070072004700000178001e0090000b
:1018dc00ae0090004c410700da3f0700000000000a
:1018ec000000000072004700000178001e0090000c
:1018fc00ae009000634107001e089000ae089000f7
:10190c000000780070079800fe0090007e089000a0
:10191c00808f5000030032005ae8a80070002000ad
:10192c00170037001e089000ae0890004008de003b
:10193c0000407800005798000e5090008080fb000b
:10194c006e099000f007200000006100808f5000ad
:10195c00030032005ae8a80070002000080037008d
:10196c00be009000c07f2000808f500003003a0022
:10197c005e00900000407800030007000000eb00c0
:10198c000080fa00000006003200fa000077980090
:10199c000000eb00000f7800010037001e0fe8007c
:1019ac001e007800e10f500008003e001e00780079
:1019bc000040780032c1b300804078000e70900077
:1019cc00ac010700e14f5000f4ff32001e0078001c
:1019dc00e20f500003003a005a68a80030002000c3
:1019ec00a20137001e00e800100798001e009000ae
:1019fc00e20f500011003a000000eb0010079800b5
:101a0c000f0037001e0090000000e800100798003f
:101a1c001e009000e20f500002003a000000eb00a4
:101a2c00100798001e0090009e0f500004003a0012
:101a3c005a28a800100020008c013700000000007c
:101a4c001e0090000040780042c1b3008040780036
:101a5c000e709000870107000004e000e9ff3200df
:101a6c0002002400031020000e7090000080fb0088
:101a7c004c00dd00cf80de00020140008381480075
:101a8c001e0090004b00dd008000eb0002014000c6
:101a9c0083814800f0ff2f00f10f20000202780034
:101aac0003017800800178000100780003026200d5
:101abc00000061008000eb00c000dd000000200091
:101acc000001be006120b80000017100818171002d
:101adc0022079800330798002e019000be01900059
:101aec0052079800630798000e709000d60107000b
:101afc000000e000010032005a48a800a385200035
:101b0c0093417800634f98005a08a90050052000b3
:101b1c00a10a2000463f0700f0ff2f00f10f200024
:101b2c00500f9800610f9800f0ff2f00f10f20006c
:101b3c00700f9800011798007a0047000001780098
:101b4c002e009000be009000af4007002e009000c9
:101b5c00be00900064004000e08048002007980020
:101b6c00310798000000eb00400798000e709000c1
:101b7c000080fb004700dd00800078004e009000e4
:101b8c0000804000f800470007fe0700d0428000ac
:101b9c00610060000000e000020032005a08a90059
:101bac002c0037004e0090008000eb00500f980086
:101bbc00610f98005e089000ee089000c002dd00f6
:101bcc00040020004e0890006101b800f0ff2f00c7
:101bdc0001002000020378000301780080017800e6
:101bec000100780003036300000061008000eb003b
:101bfc00c000dd00000020000001be006130b80014
:101c0c0000017100818171000200720083807200fa
:101c1c00500f9800610f9800f0ff2f00f10f20007b
:101c2c00700f9800011798007a00470000017800a7
:101c3c002e009000be009000734007002e00900014
:101c4c00be00900064004000e0804800200798002f
:101c5c00310798004e0090000000e8004007980003
:101c6c00ce00900000082000808f5000bfff3a008b
:101c7c006e499000a1852000824878000200240063
:101c8c00031020000e7090000080fb004c00dd0063
:101c9c00cf80de0002014000838148001e009000ce
:101cac004b00dd008000eb00020140008381480006
:101cbc00f0ff2f00f10f20000202780003017800e2
:101ccc0080017800010078000302620000006100ce
:101cdc008000eb00c000dd00000020000001be0011
:101cec006120b80000017100818171006400410025
:101cfc00e08049002007980031079800200220005e
:101d0c000e004000000178002e009000be009000f4
:101d1c005c4007001e109000ae1090004008de00e2
:101d2c0080007800f00f20000080600040079800d1
:101d3c001e109000ae10900000007800400f98002c
:101d4c002e009000be00900064004000e08048002f
:101d5c002007980031079800270037000e7090007c
:101d6c000080fb004700dd00800078004e009000f2
:101d7c0000804000e10220008e8040008afd0700b8
:101d8c00fe1090004e089000808f5000030032002f
:101d9c005ae8a80070002000b40037002002200090
:101dac000e004000000178002e009000be00900054
:101dbc00344007001e109000ae1090004008de006a
:101dcc0080007800f00f2000008060004007980031
:101ddc001e109000ae10900000007800400f98008c
:101dec002e009000be00900064004000e08048008f
:101dfc002007980031079800ce009000f00f2000cb
:101e0c00808f5000d5ff3a00020024000310200000
:101e1c000e7090000080fb004c00dd00cf80de00d7
:101e2c0002014000838148001e0078004b00dd0059
:101e3c008000eb000201400083814800f0ff2f007e
:101e4c00f10f200002027800030178008001780075
:101e5c000100780003026200000061008000eb00ca
:101e6c00c000dd00000020000001be006120b800b1
:101e7c000001710081817100020f9800130f98000e
:101e8c0002002400031020000e7090000080fb0064
:101e9c004c00dd00cf80de00020140008381480051
:101eac001e0090004b00dd008000eb0002014000a2
:101ebc0083814800f0ff2f00f10f20000202780010
:101ecc0003017800800178000100780003026200b1
:101edc00000061008000eb00c000dd00000020006d
:101eec000001be006120b800000171008181710009
:101efc002207980033079800200220000e004000b3
:101f0c00000178000e0890009e089000dd3f07004d
:101f1c001e109000ae1090004008de00800078008b
:101f2c00f00f200000806000400798001e10900009
:101f3c00ae10900000007800400f98001e0090003a
:101f4c000000e00003003a004e0890000000e8009a
:101f5c00400f9800ce089000e0702200808f500057
:101f6c00050036005a28a800ce009000f00e200084
:101f7c0000806000400798004e0090008000eb004d
:101f8c0030179800411798003e109000ce1090002a
:101f9c00c001dd00020020004e0890008000eb0024
:101fac000000710081807100301798004117980073
:101fbc00f0ff2f00f10f20005017980061179800c8
:101fcc00600220000e004000000178002e009000fe
:101fdc00be0090008c3f0700200220000e00400045
:101fec00000178002e009000be009000a53f070075
:101ffc001e109000ae1090004008de0080007800ab
:10200c00f00f200000806000200f98001e10900040
:10201c00ae109000300f9800ce0090002e0890006b
:10202c00808f500004003a00ce0890003e089000cb
:10203c00808f5000030032005ae8a8007000200086
:10204c000a0037001e0078000040780080407800bd
:10205c000e70900053000700fa3d0700d04280003c
:10206c000000d100614060000080fb000080fa009d
:10207c00000006001000fa00404f9800514f9800e5
:10208c00624f980002002400031020004e4890007c
:10209c000080fb004c00dd00cf80de000201400020
:1020ac00838148005e4890000080fb004b00dd00ff
:1020bc00cf80de000201400083814800f0ff2f003a
:1020cc00f10f2000020278000301780080017800f3
:1020dc000100780003026200000061008000eb0048
:1020ec00c000dd00000020000001be006120b8002f
:1020fc00000171008181710012079800230798007c
:10210c0068004700000178001e009000ae009000af
:10211c005c3f07004e009000de0090004008de009f
:10212c00604798006e4890000080fb00f30f500051
:10213c000a003200f40f50000e003200f20f500073
:10214c0012003a006e4090000080fb0064006000ba
:10215c004280de00004f78000f0037006e40900088
:10216c000080fb00680060004380de00004f7800b8
:10217c00090037006e4090000080fb00700060008a
:10218c004480de00004f7800030037000040eb0075
:10219c00004f7800000000001e4078000080fa001c
:1021ac00000006000600fa004047980051479800ce
:1021bc0002002400031020004e4090000080fb0021
:1021cc004c00dd00cf80de0002014000838148001e
:1021dc005e4090000080fb004b00dd00cf80de00f5
:1021ec000201400083814800f0ff2f00f10f200016
:1021fc000202780083017800000178000100780069
:10220c0002016200008061008000eb00c000dd0074
:10221c0000002000008fbe006110b8001e1f70006f
:10222c001e97700050052000a10a2000803d070079
:10223c00120020001e00be00b03e0700813d0700ca
:10224c000080fa00000006001000fa00604f9800b1
:10225c000000eb00000f78000000eb001007980066
:10226c00030037001e0090000000e80010079800e3
:10227c001e009000e10f500008003e001e00900070
:10228c000040780032c1b300804078006e48900066
:10229c0078ff0700e14f5000f2ff320002002400eb
:1022ac00031020006e4890000080fb004c00dd0005
:1022bc00cf80de0002014000838148001e009000a8
:1022cc004b00dd008000eb000201400083814800e0
:1022dc00f0ff2f00f10f20000202780003017800bc
:1022ec0080017800010078000302620000006100a8
:1022fc008000eb00c000dd00000020000001be00eb
:10230c006120b800000171008181710022079800e2
:10231c00330798009e007800648f40002e009000d8
:10232c00be00900064004000e08048002007980048
:10233c00310798006a004700000178002e009000d9
:10234c00be009000cf3e07005e009000ee009000b3
:10235c004008de00004f9800f07f20009e007800bf
:10236c00808f500003003e000e489000e14f40006b
:10237c00e8ff3a00008020009e007800808f50001b
:10238c0002003a000000eb00000f78001e007800fd
:10239c000080fa00000006001000fa00889fbe00c2
:1023ac008a1f780020079800310798004207980090
:1023bc005307980064079800654f98000000eb00e5
:1023cc0010079800ee009000b0122000808f500093
:1023dc0002003e00c0122000600798005e009000d2
:1023ec008000eb0078f907000002be002043840057
:1023fc00314384000001be000400be00c7f9070091
:10240c0070408800814088007440800085408000c6
:10241c0040438400514384000001be000400be0010
:10242c0001f9070090408800a14088006000b800c6
:10243c007040880081408800de0090002e009000e3
:10244c00010878002e0090000080e800200798001a
:10245c00ee0090002e009000010878002e009000f5
:10246c000080e8002007980020438400314384005a
:10247c000001be000000200001f82300eaf807006c
:10248c002df90700800078002e00900001087800dc
:10249c002e0090000080e800200798002e0090008d
:1024ac0001802000010878002e0090000080e800d8
:1024bc002007980040002000000f78003100370002
:1024cc006e4890000004e000210032001e009000d5
:1024dc0000f0a7000000ea000000ea004f00de0058
:1024ec00ae009000800878002e0090000080e8007c
:1024fc00200798007040800081408000bbf90700e5
:10250c000004be006e0090008000eb002ef9070066
:10251c000001be000800be0080f907000001be00eb
:10252c00000020000148240061f8070002f90700b0
:10253c00800078002e009000010878002e0090009a
:10254c000080e800200798001e8fe800010037008b
:10255c001e0fe80074408000854080009040800091
:10256c00a14080000001be000400be0051f807002d
:10257c0070408800814088001e0090000000e80038
:10258c00100798009e0078004e009000808f50003d
:10259c00160031001e009000cf80de0007f9070006
:1025ac000002be0020438400314384000001be00c1
:1025bc000400be0059f907000004be003e00900064
:1025cc008000eb0000f907001ac0b3000001be0048
:1025dc000800be00d6f807000000e000010034003f
:1025ec000045eb000a04e000b5ff3a001e0078003d
:1025fc004f0578004f04be000080fa000000060072
:10260c000000fa000168ef000080fa0000000600ec
:10261c000200fa00000f78009900a9008900a900b7
:10262c00a3e1a800a061a900a221a900110d8000be
:10263c00f0cf2f0000806000100d8800110d80007d
:10264c00f0fc2f0000806000100d88009a21ef0034
:10265c001e007800000040008000eb000001be006e
:10266c0000402200410f200062f9070000007800b2
:10267c00f00c88004827ef005027ef004c27ef00a4
:10268c004627ef004787a9004767a9004747a800de
:10269c00313a8000f0cf2f0000806000303a880083
:1026ac00313a8000f0f02f00008060000050a00054
:1026bc00303a88004647a8004967a9004827a90076
:1026cc00413a800030f82f00008060000020a0000c
:1026dc00403a88004be7a9004bc7a900513a80004b
:1026ec00f00f2e008080600000e0200001007000e0
:1026fc00503a8800b0c0b3004ae7b7004ba7a90016
:10270c005587a90055a7a900413a8000f0ff230086
:10271c0000806000403a880049a7a900613a800017
:10272c00f0f12f0000806000603a8800613a800070
:10273c0000fe2f00008060000000a000603a8800be
:10274c000080fa00000006000200fa00000f78007a
:10275c000068ef000428ef000628ef000828ef00bf
:10276c0010c0b30001e8b7001e0078000000e000c4
:10277c000500320060302100753e07008000eb0040
:10278c001e007800783e070089a0a90099a0a80037
:10279c0047e7a8000080fa00000006000000fa00dd
:1027ac0047e7a90099a0a900a3e1a900a13e070051
:1027bc000080fa00000006000800fa00000f780004
:1027cc001107980022079800330798009e007800a4
:1027dc00114088003e0090008dff0700e03b070091
:1027ec001e009000d8ff07001f00370000c8bf0074
:1027fc000004e0001c00320000c8bf000040e900eb
:10280c0000e8b7001040800022408000314080007a
:10281c008100510001087800204080003040880081
:10282c00104080000080e8001040880010408000bc
:10283c0092388000a1388000810041008100d100d5
:10284c0001087800104080000080e80010408800eb
:10285c00404080000080e80040408800204080001c
:10286c000000e80020408800414080002e009000cd
:10287c00808f50000300310001c8bf000004e0004d
:10288c00daff3a00c5ff0700e33b07004040800039
:10289c000080fa00000006000800fa00000f780023
:1028ac001107980022079800330798009e007800c3
:1028bc00114088003e00900055ff0700a83b070020
:1028cc001e009000a0ff07001200370000c8bf00d8
:1028dc000004e0000f00320000c8bf000040e90017
:1028ec0000e8b7001040800092388000a1388000ca
:1028fc00810041008100d100010878001040800067
:10290c000080e80010408800404080000000e80093
:10291c0040408800414080002e009000808f500085
:10292c000300310001c8bf000004e000e7ff3a00db
:10293c009aff0700b83b0700404080000080fa0077
:10294c00000006001e00fa00200f9800310f9800be
:10295c00420f9800530f9800640f9800ae08900037
:10296c00114088005e08900029ff07007c3b07009f
:10297c000000eb00000f78000080eb0010079800bf
:10298c004e0890000080e900400f98003e0890002f
:10299c006dff07009a00370000c8bf000004e0007c
:1029ac009700320000c8bf000040e90000e8b70003
:1029bc0091388000a0388000008040000000d100d9
:1029cc00800078001e0078004200dd000000470007
:1029dc006a00400001087800214080001e00780049
:1029ec004200dd000000470068004000010878004c
:1029fc001e0078000000e0001e0032001e0078006f
:102a0c004200dd000080e80000004700c00090009c
:102a1c001e00e9004200dd000080e80000004700d5
:102a2c00400090000080500000f0a7000000ea0079
:102a3c00800078006e089000808f50000b003100f1
:102a4c001e00e9004200dd00000047006800400065
:102a5c009e007800c208dd0068014700810041003b
:102a6c003118780021107800120037001e0fe80092
:102a7c001000370010408000ce0090000108780054
:102a8c00104080000080e80010408800104080005a
:102a9c00de00900001087800104080000080e80003
:102aac0010408800404080000080e80040408800d2
:102abc001e0fe800204080000000e8002040880045
:102acc001e007800e30f50004d003a005e019000ac
:102adc00fe00900010002000810f51000100350015
:102aec000000eb00200798007e0190009e089000eb
:102afc0010002000810f5100010035000000eb0098
:102b0c0030079800ae0090003e009000808f50007f
:102b1c0031003200ae0090001e009000808f5000fb
:102b2c0011003a00104080006400500011408000f9
:102b3c00e480500011017800ee01900031408000db
:102b4c008180510081004100010878006e009000e6
:102b5c0030408800104080000080e900fe009000aa
:102b6c000108780013003700104080006e019000bf
:102b7c003140800081005100010878006e00900007
:102b8c0030408800104080000080e8001040880031
:102b9c0010408000fe00900001087800104080007a
:102bac000080e80010408800404080000080e80071
:102bbc00404088000e0990009e0990004207980042
:102bcc005307980010002000000f7800ae01900011
:102bdc00130798000a0037006e019000fe01900068
:102bec0042079800530798000e0990009e09900028
:102bfc00620798007307980020002000000f7800ef
:102c0c00414080004e089000808f5000030031003e
:102c1c0001c8bf000004e0005fff3a00dffe0700c0
:102c2c00104080009e00e900c208dd0081004700d2
:102c3c004101900031408000810051000108780072
:102c4c00104080000080e800104088001040800098
:102c5c009e00e900c208dd008180e8008100470089
:102c6c00c100900001087800404080000080e8001e
:102c7c0040408800e83a0700404080000080fa009d
:102c8c00000006000c00fa00881f7800200798004e
:102c9c003107980042079800530798004e009000a7
:102cac00110020000008dd00100798000000eb0068
:102cbc00000f78004e0090003a3607005e0090003e
:102ccc0053fe0700a63a07000000eb009efe07002b
:102cdc001200370000c8bf000004e0000f003200f3
:102cec0000c8bf000040e90000e8b7001e007800f3
:102cfc0000004000ae009000008440009e00780070
:102d0c0092388000a0388000000041000000d10003
:102d1c005e360700000c78001e0fe8001e009000c5
:102d2c009e007800808f5000eaff39009bfe070060
:102d3c00b93a07002e009000083707001e007800f3
:102d4c004f0478000080fa00000006002200fa0010
:102d5c00300f9800410f9800520f9800630f9800a5
:102d6c00740f980005179800de0890006e0890000c
:102d7c000080500030079800be009000b0aa2a00d6
:102d8c000008b8000100d100400798003e009000f8
:102d9c0000004000be0890000080400050079800e2
:102dac00de009000610798000000eb00100798000f
:102dbc00090037001e00900000004000be08900083
:102dcc00008040008000eb00010878001e0090009d
:102ddc000000e800100798009e0090004e00900044
:102dec00808f5000f3ff3900be08900071079800e7
:102dfc000000eb00000f78004001200001002000d3
:102e0c00b0448800c1448800b0448000c1448000b4
:102e1c000000780000027800fe0990006e09900016
:102e2c00110020005e009000c6fe0700000f980005
:102e3c0010002000100798005c0037001e00900066
:102e4c000000e8004200dd00ee0090000080400031
:102e5c00900090001e0090004200dd006e0190007a
:102e6c0000004100100090000080500000f0a7000e
:102e7c000000ea00100f98001e0090000000e8000f
:102e8c004200dd00ee009000008040001000780051
:102e9c00200f98000000eb0020079800030037007b
:102eac002e0090000000e800200798002e009000f3
:102ebc009e0f5000140031002e0090006600b900e7
:102ecc0000007800fe009000008040002000900080
:102edc00800078001e089000808f5000f0ff3a00b0
:102eec002e0090006600b90000007800fe009000f3
:102efc000080400010009000800078002e089000a8
:102f0c00808f5000e6ff3a002e0090009e0f50007c
:102f1c001b003a004e0090009e007800808f5000fd
:102f2c001f0031001e0078006600b9000000780018
:102f3c00fe009000008040009e0890002100980048
:102f4c001e0078006600b90000007800fe009000ba
:102f5c0000804000ae089000110098001e00780020
:102f6c006600b90000007800fe0090000080400070
:102f7c0011002000010878001e0fe800080037003f
:102f8c001e0078006600b90000007800fe0090007a
:102f9c0000804000900078008100e8000108780073
:102fac001e0090000000e800100798006e089000ca
:102fbc000000d1008000e9001e009000808f5000be
:102fcc009eff3e001e0078006300b90000007800f0
:102fdc000080fa00000006001e00fa00881f78002e
:102fec00000f9800110f9800220f9800330f9800d3
:102ffc00440f9800550f9800660f98003e089000fb
:10300c00110020000008dd00300798003e00900001
:10301c000000d1000000e90040079800ae089000c5
:10302c003e00900000805000000040008e08900090
:10303c0000804000500798008e08900061079800af
:10304c003e08900057350700ae0890003e009000f7
:10305c0080805000b0aa2a000008b8000100d100fe
:10306c00700798000000eb00000f78000800370094
:10307c001e0078006600b90000007800ee00900099
:10308c0000804000f10f2000110098001e0fe80096
:10309c007e0090009e007800808f5000f4ff390075
:1030ac000000eb00100798004e08900058fd070038
:1030bc00ab390700780037000000eb0020079800c0
:1030cc000068ef0089a0a90099a0a80047e7a80014
:1030dc001400370000c8bf000004e00011003200eb
:1030ec0000c8bf000040e90000e8b7002e009000c7
:1030fc00000040008e08900000844000ae0090005c
:10310c0092388000a0388000000041000000d100ff
:10311c005e350700000c78002e0090000000e800df
:10312c0020079800ae0090003e009000808f500069
:10313c00e8ff390047e7a90099a0a9005e009000bc
:10314c00063607000000eb00200798004b00370004
:10315c002e00900000004000de0090000080400037
:10316c0010007800800078005e089000808f50007e
:10317c003f0036000000eb00000f78000100370024
:10318c001e0fe8001e0090009e007800808f5000fb
:10319c000a0031001e0078006600b90000007800bb
:1031ac00ee0090000080400010009000800078003d
:1031bc002e009000808f5000f1ff3a001e0090000e
:1031cc009e007800808f500021003a009e009000f5
:1031dc007e009000808f5000250031001e00900072
:1031ec000000e800100798001e0078006600b90087
:1031fc0000007800ee00900000804000ae009000cf
:10320c00110098001e0078006600b90000007800dc
:10321c00ee009000808040002e00900000004000e6
:10322c005e0190000000410010007800a0009800a2
:10323c001e0078006600b90000007800ee009000d7
:10324c0000804000110020000108780008003700c1
:10325c001e0078006600b90000007800ee009000b7
:10326c0000804000900078008100e80001087800a0
:10327c002e0090000000e80020079800ae0090009f
:10328c004e009000808f5000b1ff39001e08900056
:10329c000000e900100f98001e0890000000e000ec
:1032ac0085ff3a00a3e1a9005b3907001e009000de
:1032bc004f0478000080fa00000006000a00fa00b3
:1032cc004007980099a0a90089a0a9007666a800db
:1032dc007e66a8004627ef004747a9004647a8008e
:1032ec004827ef004a27ef00513a8000f00f2e00dc
:1032fc008080600000e0200001007000503a8800df
:10330c0070c0b3004ae7b7005427ef004c27ef001a
:10331c00613a800000fe2f00008060005000b30076
:10332c00603a88005027ef0047e7a8004627a8001e
:10333c0010002000010020002007980031079800a1
:10334c0016003700a0a6200001002000008fbe0050
:10335c001e0090001e00700000f0a7000000ea00a4
:10336c000000ea004f00de00004078000081eb0016
:10337c008081eb001e0f41005e9749000004e000c5
:10338c00f3ff3a002e009000be0090006100500048
:10339c00e080580020079800310798002e0090001c
:1033ac00be009000e00f5000e08f5800e5ff3a009f
:1033bc004627a9000100370000000000303a8000c9
:1033cc00610060000000e000fbff320047e7a9004d
:1033dc009038800001402000008050008000780070
:1033ec004e00900001087800100020000080fa00c8
:1033fc00000006000000fa00604080000000e000c1
:10340c000b00320050408000b10c800000014000e5
:10341c0040a82300000041000108780050408000c3
:10342c000000e800504088000c28ef000300370033
:10343c0010002000604088009621ef000080fa0008
:10344c00000006000200fa00000f78007646a80083
:10345c007e46a9007a46a90098e0a90088e0a90058
:10346c00a021ef00a021a800010d8000f0cf2f00bb
:10347c00008060000080a000000d88009621ef0005
:10348c000080eb00e00c88000a28ef000c28ef000d
:10349c0000a021002e3b0700a1e1a8008000eb005a
:1034ac0010002000303b070000000000504080005e
:1034bc008000780060438400808f5000fbff39004f
:1034cc005c3b0700a1e1a9002000200050408800cf
:1034dc000b00370031d481005040800000014000c7
:1034ec0040a823000000410010007800008040003c
:1034fc0030d48900504080000000e8005040880023
:10350c00504080008000780060438400808f500021
:10351c00f0ff390030d481008000780060438400d3
:10352c000000e90000017800110009008280d80039
:10353c00800078001e007800010878001000200040
:10354c000080fa00000006000200fa00000f78006c
:10355c009e007800f14288000080fa00000006000e
:10356c000000fa000600fc006176200052052000e5
:10357c0082087800a30a200083087800cd61a80097
:10358c000080fa00000006000000fa00cde1a9005e
:10359c0050052000303b8800a00a2000303b8800fa
:1035ac00cd61a90000002800700e880010012c00cd
:1035bc00800e8800703c2000900e8800d421ef0013
:1035cc0000002800600e8800cde1a800e4ff070091
:1035dc009fc0a9000080fa00000006000200fa005b
:1035ec00000f7800cfe1a900d8a1a90000000000cd
:1035fc00c00e8000620060000000e000fcff3a009a
:10360c00710e8000f00f2f008080600000502000b1
:10361c0001007000700e88001e00780010489000a9
:10362c008080fb00d0cc2c000008b8004308de00e2
:10363c00004078000080fb00c401dd001e00780013
:10364c00104890000081fb00d0cc2c000010b8007a
:10365c004308de006a00b900000078000000510049
:10366c00004078000080fb0003007000c801dd0002
:10367c001e007800004890008080fb00d0cc2c000d
:10368c000008b8004308de00004078000080fb0012
:10369c004402dd001e007800004890000081fb0011
:1036ac00d0cc2c000010b8004308de006a00b90032
:1036bc000000780000005100004078000080fb0002
:1036cc000400700003007000500f88001e0078008a
:1036dc00704090008080fb00d0cc2c000008b8001b
:1036ec004308de00004078000080fb00c401dd00d0
:1036fc001e007800704090000081fb00d0cc2c00a4
:10370c000010b8004308de006a00b9000000780021
:10371c0000005100004078000080fb0003007000a6
:10372c004800dd00400f88001e00780060409000cb
:10373c008080fb00d0cc2c000008b8004308de00d1
:10374c00004078000080fb00c401dd001e00780002
:10375c00604090000081fb00d0cc2c000010b80021
:10376c004308de006a00b900000078000000510038
:10377c00004078000080fb0003007000c801dd00f1
:10378c001e007800504090008080fb00d0cc2c00b4
:10379c000008b8004308de00004078000080fb0001
:1037ac004402dd001e007800504090000081fb00b8
:1037bc00d0cc2c000010b8004308de006a00b90021
:1037cc000000780000005100004078000080fb00f1
:1037dc000400700003007000300f88001e00780099
:1037ec00404090008080fb00d0cc2c000008b8003a
:1037fc004308de00004078000080fb00c401dd00bf
:10380c001e007800404090000081fb00d0cc2c00c2
:10381c000010b8004308de006a00b9000000780010
:10382c0000005100004078000080fb000300700095
:10383c004800dd00200f8800cfe1a8008fc0a90050
:10384c009fc0a8000080fa00000006000000fa00eb
:10385c0050052000303b8800a00a2000303b880037
:10386c00cd61a900cfe1a9003dff07009fc0a900d1
:10387c000080fa00000006000000fa00010037008a
:10388c0000000000c00e8000640060000000e0003a
:10389c00fbff3a00100f8000e0d38900000f80007e
:1038ac00f0d38900f00e800000d48900e00e800077
:1038bc0010d489000080fa00000006000200fa0013
:1038cc00000f7800e0d381004c00de00004078004f
:1038dc006a00b9000000780080407800e0d38100d5
:1038ec004800de00004078006f40600080c040005f
:1038fc001e007800114898001e00780010489000b7
:10390c000080fb008000eb001e0178000089be00e7
:10391c00e1d38100000f2000008060004400de0035
:10392c00004078006a00b900000078008040780000
:10393c00e0d38100004078006f40600080c0400000
:10394c001e007800014898001e0078001001be008f
:10395c004418dd00cc10de00810070004410dd0046
:10396c001e0178000089be001e0078001002be0007
:10397c001e007800004890000081fb008001eb00e5
:10398c00f000200001002000020378000301780001
:10399c0080017800010078000303630000006100df
:1039ac008000eb00c000dd00000020000001be0024
:1039bc006130b80000017100818171000200720059
:1039cc00838072001e0178000089be00f0d3810054
:1039dc004c00de00004078006a00b900000078005e
:1039ec0080407800f0d381004800de000040780071
:1039fc006f40600080c040001e007800714098004d
:103a0c001e0078001001be004518dd00cb10de0052
:103a1c00810070004510dd001e0178000089be0099
:103a2c001e0078001002be001e007800704090004e
:103a3c000081fb008001eb00f00120000100200060
:103a4c0002037800030178008001780001007800ff
:103a5c0003036300000061008000eb00c000dd0088
:103a6c00000020000001be006130b80000017100b0
:103a7c008181710002007200838072001e01780047
:103a8c000089be001e0078001000be00c100dd00e1
:103a9c00000020001e0178000089be0000d48100c7
:103aac004c00de00004078006a00b900000078008d
:103abc008040780000d481004800de00004078008f
:103acc006f40600080c040001e007800614098008c
:103adc001e0078001001be001e00780060409000af
:103aec000082fb008002eb004c28dd00c420de00cd
:103afc00810070004c20dd0000007100818071009d
:103b0c001e0178000089be0001d48100000f200046
:103b1c00008060004400de00004078006a00b900bc
:103b2c00000078008040780000d4810000407800cc
:103b3c006f40600080c040001e007800514098002b
:103b4c0010d481004c00de00004078006a00b900ff
:103b5c00000078008040780010d481004800de001e
:103b6c00004078006f40600080c040001e0078006c
:103b7c00414098001e0078001001be001e00780025
:103b8c00504090000082fb008002eb004628dd00d4
:103b9c00ca20de00810070004620dd0000007100ac
:103bac00818071001e0178000089be001e00780023
:103bbc001001be001e007800404090000080fb0009
:103bcc008000eb0000007100818071001e01780004
:103bdc000089be000080fa00000006000600fa0012
:103bec00200798002e0090001000be004108de0057
:103bfc0001002000008fbe001e00be004709dd0042
:103c0c004900de0000007100c908de008040780029
:103c1c002e009000114898001e00be004b0add00db
:103c2c004500de0000007200c508de000040780090
:103c3c00ef4060002e009000014898001e007800b4
:103c4c0000407800ff4060002e009000714098000a
:103c5c002e0090001001be00f0ff2f00110020007c
:103c6c0002027800830178000001780001007800de
:103c7c0002016200008061008000eb00c000dd00ea
:103c8c0000002000008fbe006110b8001e1f7000e5
:103c9c001e9770001e00be004409dd004c00de00c3
:103cac0000007100cc08de00804078002e009000ef
:103cbc006140980000fc2000010020001e01be00a5
:103ccc00020278000301780080017800010078007e
:103cdc0003026200000061008000eb00c000dd0008
:103cec00000020000001be006120b800000171003e
:103cfc00818171004a1add004610de00000072005e
:103d0c00c618de00804078002e00900051409800cc
:103d1c001e00780000407800f2c3b30082406000bf
:103d2c002e009000414098000080fa000000060030
:103d3c000200fa00000f7800cffe07000080fa00a6
:103d4c00000006000400fa00cbfe0700e0d381005f
:103d5c004c00de006a00b90080007800e0d38100de
:103d6c004800de006f006000008040008000eb0027
:103d7c00008fbe001e01be004418dd00cc10de001a
:103d8c00810070004410dd00008fbe00e1d3810083
:103d9c00000f2000008060004400de006a00b900c3
:103dac0080007800e0d381006f006000008040004c
:103dbc006101b800f0002000010020000202780030
:103dcc000301780080017800010078000302620092
:103ddc00000061008000eb00c000dd00000020004e
:103dec000001be006120b8000001710081817100ea
:103dfc001e1f71001e9771001e01be004518dd00cc
:103e0c00cb10de00810070004510dd00008fbe007d
:103e1c00f0d381004c00de006a00b900800078000d
:103e2c00f0d381004800de006f006000008040008d
:103e3c006101b800f00120000100200002027800ae
:103e4c000301780080017800010078000302620011
:103e5c00000061008000eb00c000dd0000002000cd
:103e6c000001be006120b800000171008181710069
:103e7c001e1f71001e9771001e00be00c100dd00e8
:103e8c0000002000008fbe0000d481004c00de003a
:103e9c006a00b9008000780000d481004800de0080
:103eac006f006000008040006101b8004c18dd001c
:103ebc00c410de00810070004c10dd001e1f70006d
:103ecc001e97700001d48100000f2000008060005c
:103edc004400de006a00b9008000780000d4810044
:103eec006f006000008040006101b8004618dd00e2
:103efc00ca10de00810070004610dd001e1f70002d
:103f0c001e97700010d481004c00de006a00b900ce
:103f1c008000780010d481004800de006f00600043
:103f2c00008040008000eb001e1f70001e97700088
:103f3c001e00be000080fa00000006000400fa001b
:103f4c00000f78002147980052052000323b880072
:103f5c00a20a2000323b8800cd61a9001e00780027
:103f6c00104890008080fb00d0cc2c000008b800da
:103f7c004308de00004078000080fb00c401dd0037
:103f8c001e007800104890000081fb00d0cc2c0063
:103f9c000010b8004308de006a00b9000000780089
:103fac0000005100004078000080fb00030070000e
:103fbc00c801dd001e007800004890008080fb00e6
:103fcc00d0cc2c000008b8004308de00004078007c
:103fdc000080fb004402dd001e00780000489000c9
:103fec000081fb00d0cc2c000010b8004308de0090
:103ffc006a00b90000007800000051000040780011
:10400c000080fb000400700003007000100f88009b
:10401c001e007800704090008080fb00d0cc2c00fb
:10402c000008b8004308de00004078000080fb0068
:10403c00c401dd001e007800704090000081fb0080
:10404c00d0cc2c000010b8004308de006a00b90088
:10405c000000780000005100004078000080fb0058
:10406c00030070004800dd00000f88001e0078007f
:10407c00604090008080fb00d0cc2c000008b80081
:10408c004308de00004078000080fb00c401dd0026
:10409c001e007800604090000081fb00d0cc2c000a
:1040ac000010b8004308de006a00b9000000780078
:1040bc0000005100004078000080fb0003007000fd
:1040cc00c801dd001e007800504090008080fb008d
:1040dc00d0cc2c000008b8004308de00004078006b
:1040ec000080fb004402dd001e0078005040900070
:1040fc000081fb00d0cc2c000010b8004308de007f
:10410c006a00b900000078000000510000407800ff
:10411c000080fb000400700003007000f00e8800ab
:10412c001e007800404090008080fb00d0cc2c001a
:10413c000008b8004308de00004078000080fb0057
:10414c00c401dd001e007800404090000081fb009f
:10415c00d0cc2c000010b8004308de006a00b90077
:10416c000000780000005100004078000080fb0047
:10417c00030070004800dd00e00e8800f8fc07002a
:10418c000080fa00000006000000fa00bafd0700eb
:10419c0001d48100000f2000008060004400de008c
:1041ac006a00b9008000780000d481006f006000c4
:1041bc00008040000080fa00000006000c00fa00ad
:1041cc00500798000e007800d9fe0700ce409000f2
:1041dc005e0090000040780000c04000404798000e
:1041ec00ce409000b0c3b30080cf50002200360008
:1041fc005e4190004e4090008080fb00908828002b
:10420c000008b8004508de0000407800004041007e
:10421c00504798005e019000908828000010b8006c
:10422c004508de00c10320000180b90000007800c1
:10423c00000051000040780040479800de4090009c
:10424c00b0c3b30080cf50000b0036005e4090002e
:10425c000081fb00908828000010b800c508de0023
:10426c00c00320000088b900000078000000510055
:10427c0000407800504798000e007800d7fc0700eb
:10428c000080fa00000006000000fa006286a90017
:10429c006686a800310020000000eb00e231070028
:1042ac005ce8b7000080fa00000006000000fa008d
:1042bc006686a8005cc8bf000004e0000100320064
:1042cc00173207000080fa00000006000000fa0018
:1042dc006686a900b0cab300a13207006686a800a2
:1042ec000080fa00000006000200fa000040eb001b
:1042fc00004f78006686a90050c0b30098320700c2
:10430c0000c0eb0096320700004f78006686a800cc
:10431c001e4078000080fa00000006000200fa003f
:10432c000040eb00004f78006686a90050c3b30034
:10433c008b32070000c0eb0089320700004f780079
:10434c006686a8001e4078000080fa000000060077
:10435c000400fa00000f7800214798006686a90037
:10436c0010c0b3007e3207001e0078004800de004b
:10437c00004078007a3207002e409000e24f500047
:10438c0003003a001e0078000040780074320700e9
:10439c006686a8000080fa00000006000400fa00ff
:1043ac00100037004010200001002000008fbe00dc
:1043bc001e0090001e00700000f0a7000000ea0034
:1043cc000000ea004f00de00004078000081eb00a6
:1043dc008081eb001e0f41005e9749000004e00055
:1043ec00f3ff3a00c0ff07000004e000edff3500ca
:1043fc000080fa00000006000000fa006686a900a2
:10440c0060c6b300563207006686a8000080fa002a
:10441c00000006000000fa00f7ff07006686a900fe
:10442c0090c9b3004e3207006686a8000080fa00df
:10443c00000006000000fa006686a9000040eb00b0
:10444c00473207006686a8000080fa0000000600cc
:10445c000000fa006686a90070ccb3004032070059
:10446c006686a8000080fa00000006000800fa002a
:10447c0020079800310798007e0007006686a90087
:10448c0000c2b300363207002e019000be0190002e
:10449c00f0ff2f00f10f20000202780003017800da
:1044ac0080017800010078000302620000006100c6
:1044bc008000eb00c000dd00000020000001be0009
:1044cc006120b80000017100818171004018de008c
:1044dc000100200000407800213207002e019000de
:1044ec00be019000f0ff2f000100200002027800b6
:1044fc00030178008001780001007800030262005b
:10450c00000061008000eb00c000dd000000200016
:10451c000001be006120b8000001710081817100b2
:10452c00481add004810de0000007200c818de00da
:10453c00004078000a3207002e00900000407800fe
:10454c00073207006686a800100037008020200084
:10455c0001002000008fbe001e0090001e007000a5
:10456c0000f0a7000000ea000000ea004f00de00a7
:10457c00004078000081eb008081eb001e0f4100b1
:10458c005e9749000004e000f3ff3a0056ff070075
:10459c000004e000edff35000080fa00000006008a
:1045ac000400fa00008fbe006686a90080cdb3001f
:1045bc00eb310700f0ff2f00f10f20001e01be00b1
:1045cc000202780003017800800178000100780075
:1045dc0003026200000061008000eb00c000dd00ff
:1045ec00000020000001be006120b8000001710035
:1045fc00818171004018de0001002000004078002d
:10460c00d7310700f0ff2f00010020001e01be0073
:10461c000202780003017800800178000100780024
:10462c0003026200000061008000eb00c000dd00ae
:10463c00000020000001be006120b80000017100e4
:10464c0081817100481add004810de000000720004
:10465c00c818de0000407800c13107001e00780049
:10466c0000407800be3107006686a8000080fa0082
:10467c00000006000000fa006686a90060c0b300c6
:10468c00b73107006686a8000080fa00000006001b
:10469c000000fa006686a90040c0b300b0310700e4
:1046ac006686a8000080fa00000006000000fa00f0
:1046bc006686a90000cbb300a93107006686a80066
:1046cc000080fa00000006000000fa006686a900cf
:1046dc0000c3b300a23107006686a8000080fa0070
:1046ec00000006000c00fa00200798003107980023
:1046fc004207980053079800ae009000f00f20007e
:10470c0000806000100798002e019000be01900000
:10471c0000f02f00f1ff2f00020278000301780057
:10472c008001780001007800030262000000610043
:10473c008000eb00c000dd00000020000001be0086
:10474c006120b8000001710081817100220798007e
:10475c00330798000000eb00000f78003f00370093
:10476c009e00900000102000808f500008003a003e
:10477c002e009000be0090000010b0000180b00030
:10478c0020079800310798000000eb0010079800f4
:10479c006686a90060c0b300713107006686a80068
:1047ac006686a90020c0b3006d3107002e00900072
:1047bc00be0090004008de00004078006831070021
:1047cc002e009000be0090004809dd004800de007d
:1047dc0000007100c808de0000407800603107005e
:1047ec001e009000004078005d3107000d0037007e
:1047fc004e00900010407800593107004e00900098
:10480c000000e800400798001e0090000000e8003f
:10481c00100798005e0090000000e9005007980017
:10482c001e0fe8009e009000f00f2000808f5000bb
:10483c0003003e005e0090000000e000ecff3a0038
:10484c006686a8000200370000000000000000008f
:10485c00a5fe07000004e000fbff35005e009000a1
:10486c000000e000beff3a0089ff07001e00780040
:10487c000080fa00000006000a00fa0010079800f9
:10488c002107980032079800430798000000eb00be
:10489c00000f78006686a900b0c0b3003031070065
:1048ac001e009000ae0090004008de000040780032
:1048bc002b3107001e009000ae0090004809dd006f
:1048cc004800de0000007100c808de0000407800df
:1048dc00233107001e0090000040780020310700b3
:1048ec0000c0eb001e3107000800370000c0eb00d1
:1048fc001b310700ce009000804878004e009000dd
:10490c000000e800400798001e0fe8003e009000f1
:10491c009e007800808f5000f4ff39006686a80056
:10492c001e0078000080fa00000006000a00fa0061
:10493c001007980021079800320798004307980049
:10494c006686a900b0c0b300053107001e019000b7
:10495c00ae019000f0ff2f00f10f20000202780052
:10496c0003017800800178000100780003026200e6
:10497c00000061008000eb00c000dd0000002000a2
:10498c000001be006120b80000017100818171003e
:10499c004018de000100200000407800f0300700d5
:1049ac001e019000ae019000f0ff2f0001002000ce
:1049bc000202780003017800800178000100780081
:1049cc0003026200000061008000eb00c000dd000b
:1049dc00000020000001be006120b8000001710041
:1049ec0081817100481add004810de000000720061
:1049fc00c818de0000407800d93007001e00900077
:104a0c0000407800d630070000c0eb00d43007001f
:104a1c000000eb00000f78000800370000c0eb002e
:104a2c00cf300700ce009000804878004e009000f8
:104a3c000000e800400798001e0fe8003e009000c0
:104a4c009e007800808f5000f4ff39006686a80025
:104a5c000080fa00000006000e00fa002007980003
:104a6c003207980043079800540798006507980090
:104a7c006000b800008fbe005e019000ee01900057
:104a8c000080200001002000800f5100818f590010
:104a9c000400360000802000010020005007980020
:104aac00610798006686a90080c8b300ac30070087
:104abc003e009000ce0090004809dd004800de006a
:104acc0000007100c808de0000407800a430070028
:104adc003e00900000407800a13007003e0090009e
:104aec00004078009e3007006000b800008fbe00c8
:104afc000b00370000c0eb0099300700ae009000af
:104b0c00804878002e0090000000e80020079800f4
:104b1c0012002000030020001e0f41005e97490088
:104b2c005e009000ee0090001e01be00800f510050
:104b3c00818f5900efff39006686a8000080fa00cb
:104b4c00000006000e00fa002007980032079800bb
:104b5c004307980054079800650798006000b80058
:104b6c00008fbe005e019000ee019000001020004e
:104b7c0001002000800f5100818f59000400360085
:104b8c0000102000010020005007980061079800d9
:104b9c006686a90050cab300713007003e00900031
:104bac00ce0090004809dd004800de0000007100d6
:104bbc00c808de0000407800693007003e00900015
:104bcc0000407800663007006000b800008fbe001f
:104bdc000a0037002e00900010407800603007006b
:104bec002e0090000000e800200798001200200022
:104bfc00030020001e0f41005e9749005e009000ec
:104c0c00ee0090001e01be00800f5100818f5900f4
:104c1c00f0ff39006686a8000080fa00000006004c
:104c2c000000fa0093fe07006686a90050c8b30086
:104c3c004b3007006686a8000080fa0000000600d2
:104c4c000000fa008bfe07006686a90080c9b3003d
:104c5c00433007006686a8000080fa0000000600ba
:104c6c000000fa006686a900d0c8b3003c300700eb
:104c7c006686a8000080fa00000006000400fa0016
:104c8c00100798000040eb00004f78006686a900e2
:104c9c0020c7b3003230070020c1b300004f7800aa
:104cac000900370000c0eb002d3007008080fb00ae
:104cbc001e009000010878001e0090000080e800a3
:104ccc00100798001e4fe9001e4078000004e00019
:104cdc00f4ff3a006686a8000080fa000000060087
:104cec000400fa00100798000040eb00004f780019
:104cfc006686a90020c4b3001930070020c1b30098
:104d0c00004f7800080037001e009000100078005b
:104d1c0000407800123007001e0090000080e80070
:104d2c00100798001e4fe9001e4078000004e000b8
:104d3c00f5ff3a006686a8000080fa000000060025
:104d4c000400fa00100798000040eb00004f7800b8
:104d5c006686a90080ceb3000130070020c1b300e5
:104d6c00004f7800080037001e00900010007800fb
:104d7c0000407800fa2f07001e0090000080e80029
:104d8c00100798001e4fe9001e4078000004e00058
:104d9c00f5ff3a006686a8000080fa0000000600c5
:104dac000600fa0010079800210798000040eb005d
:104dbc00004f78006686a900a0c5b300e82f070055
:104dcc001e019000ae019000f0ff2f00f10f2000ab
:104ddc00020278000301780080017800010078005d
:104dec0003026200000061008000eb00c000dd00e7
:104dfc00000020000001be006120b800000171001d
:104e0c00818171004018de00010020000040780014
:104e1c00d32f07001e019000ae019000f0ff2f0071
:104e2c000100200002027800030178008001780064
:104e3c000100780003026200000061008000eb00ba
:104e4c00c000dd00000020000001be006120b800a1
:104e5c000001710081817100481add004810de00ec
:104e6c0000007200c818de0000407800bc2f07005c
:104e7c001e00900000407800b92f070000c0eb0026
:104e8c00b72f070000c0eb00b52f0700004f7800cc
:104e9c006686a8001e4078000080fa00000006001c
:104eac000600fa00000f78001107980022079800fe
:104ebc006686a900f0c9b300a92f070000c0eb005b
:104ecc00a72f07008080fb001e00780001087800e7
:104edc0000c0eb00a22f07008080fb001e0090009a
:104eec000108780000c0eb009d2f07008080fb00bc
:104efc002e009000010878006686a8000080fa0059
:104f0c00000006000600fa00000f78001107980058
:104f1c00220798000080fa00000006000a00fa0040
:104f2c00008fbe00220798003307980044079800b2
:104f3c001e01be00c2408800d34088004e00900085
:104f4c008000eb001041880021418800b0408000b7
:104f5c000000e0000a003a008000eb002e019000f7
:104f6c00be01900010002000da3207008000eb0038
:104f7c002e019000be01900020002000d5320700c9
:104f8c000080fa00000006000000fa00b04080002b
:104f9c0000f0a7000000ea000000ea004f00de006d
:104fac00004078000080fa00000006000000fa00c3
:104fbc00b0408000ef3207001628ef000080fa00a6
:104fcc00000006001a00fa0070079800020f980003
:104fdc00130f9800240f9800350f9800015f98006c
:104fec000040eb00004f7800fb050700100798000d
:104ffc00b04080000000e00008003200b1408000aa
:10500c007e009000808f500002003a000040eb00c0
:10501c006b003700b0408000e4ff07007e0090007a
:10502c000000e00010003a000e0990009e0990006c
:10503c0010002000b83207000004a2000004e000b9
:10504c00120032000e0990009e09900020002000f2
:10505c00b13207000004a2000004e0000b00320093
:10506c0010c0b300560037000e0990009e09900046
:10507c007e009000a83207000004a2000004e000ab
:10508c000200320010c0b3004d0037001e80fb0040
:10509c009e00900000804000420020008181200092
:1050ac00f8ef07009e40780064cf4000e80047000e
:1050bc00640047008d2c07000004a2000004e000ef
:1050cc000200320020c0b3003d0037006a004700e8
:1050dc00d62c07000004a2000004e00002003200fd
:1050ec0020c0b300360037001e80fb009e009000ed
:1050fc0000804000e400470042002000e1ef070080
:10510c001e417800644f41001e80fb009e00900001
:10511c00008040002200200021822000d9ef0700ef
:10512c001ecfe8001e80fb009e0090000080400017
:10513c00ea00470022002000d2ef07001ecfe80053
:10514c001e80fb009e009000008040008e59900055
:10515c00034878001e4fe8001e80fb0082bb200035
:10516c008000780010c0b300a60507000004e00022
:10517c00100032006c00470081bb2000fc050700ca
:10518c000004e0000b0032002e099000be099000d4
:10519c00e2408800f34088008e5890000382200083
:1051ac00814978007e019000b24088000040eb00fd
:1051bc00030037007e0090006e32070010c0b30071
:1051cc000080fa00000006000200fa00000f7800d0
:1051dc000080fa00000006000200fa00000f7800c0
:1051ec000040eb000080fa00000006000800fa0006
:1051fc000040eb00004f780077050700100798007f
:10520c000000eb00200798002e009000792c07007e
:10521c000080fb0030079800be009000f0022000d8
:10522c00808f500019003e003e0090000000e0000e
:10523c00160032001e80fb009e0090000080400093
:10524c00800078003e009000c30407001ecfe800e9
:10525c001e80fb009e009000008040003e019000ec
:10526c00ae00900087ef07003e00900000407800f1
:10527c001e4f40001e80fb00823821008000780009
:10528c0040cab3005f050700010037000040eb0087
:10529c000080fa00000006000200fa00000f7800ff
:1052ac000080fa00000006000200fa00000f7800ef
:1052bc000040eb000080fa00000006000800fa0035
:1052cc000040eb00004f78004305070010079800e2
:1052dc000000eb0030079800660047006a2c0700be
:1052ec000080fb0020079800ae009000f002200028
:1052fc00808f500019003e002e0090000000e0004e
:10530c00160032001e80fb009e00900000804000c2
:10531c00800078002e0090008f0407001ecfe8005c
:10532c00be0090001e80fb001e019000000041009a
:10533c002e01900053ef07002e00900000407800e3
:10534c001e4f40001e80fb00823821008000780038
:10535c0030cab3002b050700010037000040eb00fa
:10536c000080fa00000006000200fa00000f78002e
:10537c0010c0b3000080fa00000006000400fa0020
:10538c0015050700000f78000e80e800482c070078
:10539c000004e0000a0032000e80e8002200200029
:1053ac00800078001e00780036ef0700823821005c
:1053bc002100200000cbb3001205070001003700cc
:1053cc000040eb000080fa00000006000a00fa0022
:1053dc00000f7800110798002207980033079800f7
:1053ec004407980010c0b3000080fa0000000600cb
:1053fc000600fa00000f78001107980022079800a9
:10540c000000eb000080fa00000006001800fa0013
:10541c00300f98000040eb00004f78000000eb00cc
:10542c00100798000040eb0050479800ea04070072
:10543c00300798000000eb00200f98000000eb00f4
:10544c00400798000040eb0040479800f2014700ed
:10545c0070014700ee0047006a0047000302780025
:10546c008201780001017800800078003e089000ed
:10547c00172c07000004e000960032009e089000f4
:10548c000e08900080804000b0aa2a000008b800e6
:10549c004508de00200f98009e0890000e08900032
:1054ac0000814000b0aa2a000010b800c508de0038
:1054bc00000320000088b9000000780000005100b3
:1054cc00400798004e0090000000e00003003200fe
:1054dc002e0890000000e800200f98000040eb0020
:1054ec00504798005e4090000080fb00be0090008a
:1054fc0000804000f400470022002000e1ee07008d
:10550c005e40900000c0e800504798005e4090005c
:10551c000080fb00be00900000804000ea004700c5
:10552c0042002000d7ee07005e409000644040002f
:10553c00504798005e4090000080fb00be00900039
:10554c0000804000fe009000814078000148780007
:10555c005e4090000040e800504798005e4090008c
:10556c000080fb00be00900000804000f00047006f
:10557c0022002000c3ee07005e40900000c0e8004f
:10558c00504798005e4090000080fb00be009000e9
:10559c0000804000f200470022002000b9ee070016
:1055ac005e40900000c0e800504798005e409000bc
:1055bc000080fb00823821008000780010c8b30006
:1055cc00900407000004e0005500320010c0b30046
:1055dc00004f78000000eb001007980038003700ef
:1055ec0000c3b300404798004e0090000000e0005c
:1055fc00070032002e0890008000e9001e00900089
:10560c00808f500002003a004e00900040479800f6
:10561c000040eb00504798005e4090000080fb007b
:10562c00be009000008040009e00900081407800f9
:10563c008140e800014878005e4090000040e8009e
